:040000004DEF00F0D0
:10000800FACF01F0FBCF02F0E9CF03F0EACF04F01A
:10001800E1CF05F0E2CF06F0D9CF07F0DACF08F04C
:10002800F3CF09F0F4CF0AF0F6CF0BF0F7CF0CF0CE
:10003800F8CF0DF0F5CF0EF0F2BC9DA805D09EA824
:1000480003D0F2EC03F008D0F2BC9DAA05D09EAA1A
:1000580003D00BEC04F000D00EC0F5FF0DC0F8FF84
:100068000CC0F7FF0BC0F6FF0AC0F4FF09C0F3FF8E
:1000780008C0DAFF07C0D9FF06C0E2FF05C0E1FFEC
:1000880004C0EAFF03C0E9FF02C0FBFF01C0FAFF9A
:06009800110039EF04F035
:10060000000D0A4C45445F443820746F67676C6581
:100610000D0A000046EC04F0F28EF28C00D08C7EC5
:1006200000D0010E116E060E126E23EC04F0000EC7
:10063000196E000E186E19BE08D0195051E1140E33
:10064000185CD8B04DD001D04BD0410E166EEE0ED6
:10065000E82EFED7162EFCD700D0184A192AEBD761
:100660003FD0BBEC03F0176E000E1B6E000E1A6E2F
:100670001BBE08D01B5029E1140E1A5CD8B025D03F
:1006800001D023D08C7C00D0000E1D6E000E1C6E9D
:100690001DBE08D01D5012E1140E1C5CD8B00ED047
:1006A00001D00CD0270E166EF50EE82EFED7162EB2
:1006B000FCD700F01C4A1D2AEBD700D01A4A1B2A8F
:1006C0001BBEE0D71B5001E1D7D79D9817509BEC7C
:1006D00003F0100E116E060E126E23EC04F000D023
:1006E0002E50D8B49CD7BDD79AD74DEF00F0000E4E
:1006F0008D6E000E8C6E000E896E000E8A6E000EDE
:100700008B6E070E966E92689368BF0E946E000E05
:10071000956E3C0E0F013A6F3F0E0F01396F000EC0
:100720000F013B6F070E0F013C6F2F0E0F01386F4B
:100730006168F19E12000F6E00D03350D8B4FDD71F
:100740009DB803D00FC0ADFF14D09D983150010D5E
:10075000260EF324D96E000EF420DA6E0FC0DFFFF0
:10076000312A070E316403D0000E316E00D03306FB
:1007700000D09D881200000E0F6E00D02E50D8B40D
:10078000FDD73050010D1E0EF324D96E000EF4205B
:10079000DA6EDF500F6E302A070E306403D0000E81
:1007A000306E00D09D9A2E069D8A0F5012001200C6
:1007B0009D9A9D98080EB86E900EAB6E240EAC6E8E
:1007C000CF0EAF6E000EB06E000E316E000E326EA8
:1007D000080E336E000E2F6E000E306E000E2E6E61
:1007E0009D8A1200080E336013D03250010D260E80
:1007F000F324D96E000EF420DA6EDF50AD6E322A8B
:10080000070E326403D0000E326E00D0332A12007D
:100810009D9812001200ABA203D0AB98AB8800D019
:100820002F50010D1E0EF324D96E000EF420DA6E47
:10083000AECFDFFF2F2A070E2F6403D0000E2F6EDE
:1008400000D02E2A1200130E136E000E146E04D068
:10085000155056EC04F000D011C0F6FF12C0F7FF9F
:10086000114A122A0800F5CF15F01550D8A4F0D778
:10087000120000EE1EF0150EEE6AE806FDE1000E15
:10088000F86E060EF76E00010AEF03F05BEC04F061
:1008900077EC03F04FEC04F0D8EC03F01200600E9C
:1008A000D36E040ED26E000E9B6E1200106E1050AE
:0A08B0009BEC03F01200D09E120032
:020000040020DA
:08000000FFFFFFFFFFFFFFFF00
:020000040030CA
:0E000000FF281F3CFFBF85FF0FC00FE00F4021
:00000001FF
