:040000004DEF00F0D0
:10000800FACF26F0FBCF27F0E9CF28F0EACF29F086
:10001800E1CF2AF0E2CF2BF0D9CF2CF0DACF2DF0B8
:10002800F3CF2EF0F4CF2FF0F6CF30F0F7CF31F03A
:10003800F8CF32F0F5CF33F0F2BC9DA805D09EA8DA
:1000480003D056EC04F008D0F2BC9DAA05D09EAAB5
:1000580003D06FEC04F000D033C0F5FF32C0F8FFD6
:1000680031C0F7FF30C0F6FF2FC0F4FF2EC0F3FFFA
:100078002DC0DAFF2CC0D9FF2BC0E2FF2AC0E1FF58
:1000880029C0EAFF28C0E9FF27C0FBFF26C0FAFF06
:0600980011009DEF04F0D1
:10060000000D0A4C45445F443020746F67676C6589
:100610000D0A0000A8EC04F0F28EF28C350E436E49
:10062000330E016E2E0E026E390E036E340E046E02
:10063000330E056E370E066E2E0E076E390E086EDF
:10064000310E096E350E0A6E2E0E0B6E340E0C6EC8
:10065000350E0D6E2E0E0E6E380E0F6E370E106E9E
:1006600000D0010E366E060E376E87EC04F0000ED9
:100670003D6E000E3C6E3DBE08D03D5054E1140E60
:100680003C5CD8B050D001D04ED0410E3B6EEE0E47
:10069000E82EFED73B2EFCD700D03C4A3D2AEBD7B4
:1006A00042D01FEC04F0426E000E3F6E000E3E6E14
:1006B0003FBE08D03F5029E1140E3E5CD8B025D093
:1006C00001D023D08C7200D0000E416E000E406E1F
:1006D00041BE08D0415012E1140E405CD8B00ED09B
:1006E00001D00CD0270E3B6EF50EE82EFED73B2E28
:1006F000FCD700F0404A412AEBD700D03E4A3F2ABF
:100700003FBEE0D73F5001E1D7D79D984250FFEC64
:1007100003F0100E366E060E376E87EC04F0425072
:100720009AEC03F000D02150D8B49BD7BAD799D710
:100730004DEF00F0366E2FD04350FFEC03F0120067
:10074000000E386E000E376E38BE08D0385031E1DA
:10075000100E375CD8B0120001D01200010E372401
:10076000D96E000E3820DA6EDF50FFEC03F0410E38
:10077000356EEE0EE82EFED7352EFCD700D0374A68
:10078000382AE2D712008C9012008C801200550E8D
:10079000FFEC03F012003650490AD8B4D1D71D0A35
:1007A000D8B4CAD7350AD8B4EED7030AD8B4EDD72F
:1007B000EED71200000E8D6E000E8C6E000E896E4C
:1007C000000E8A6E000E8B6E000E966E800E926E7C
:1007D0009368B80E946EFC0E956E380E0F013A6F4A
:1007E0003F0E0F01396F000E0F013B6F000E0F011E
:1007F0003C6F000E0F01386F6168F19E1200346E7D
:1008000000D04450D8B4FDD79DB803D034C0ADFF5C
:1008100014D09D982450010D190EF324D96E000EAA
:10082000F420DA6E34C0DFFF242A070E246403D0DC
:10083000000E246E00D0440600D09D881200000EE9
:10084000346E00D02150D8B4FDD72350010D110EC5
:10085000F324D96E000EF420DA6EDF50346E232AB2
:10086000070E236403D0000E236E00D09D9A21064C
:100870009D8A3450120012009D9A9D98080EB86E01
:10088000900EAB6E240EAC6ECF0EAF6E000EB06E3F
:10089000000E246E000E256E080E446E000E226EB1
:1008A000000E236E000E216E9D8A1200080E446019
:1008B00013D02550010D190EF324D96E000EF4202B
:1008C000DA6EDF50AD6E252A070E256403D0000EC8
:1008D000256E00D0442A12009D9812001200ABA28F
:1008E00003D0AB98AB8800D02250010D110EF32439
:1008F000D96E000EF420DA6EAECFDFFF222A070E8B
:10090000226403D0000E226E00D0212A1200380E7D
:10091000386E000E396E04D03A50B8EC04F000D0B6
:1009200036C0F6FF37C0F7FF364A372A0800F5CF42
:100930003AF03A50D8A4F0D7120000EE01F0250E9C
:10094000EE6AE806FDE1000EF86E00010AEF03F022
:10095000BDEC04F0DAEC03F0B1EC04F03CEC04F094
:100960001200600ED36E040ED26E000E9B6E12004B
:0E097000356E3550FFEC03F01200D09E1200E1
:020000040020DA
:08000000FFFFFFFFFFFFFFFF00
:020000040030CA
:0E000000FF281F3CFFBF85FF0FC00FE00F4021
:00000001FF
