:040000004DEF00F0D0
:10000800FACF26F0FBCF27F0E9CF28F0EACF29F086
:10001800E1CF2AF0E2CF2BF0D9CF2CF0DACF2DF0B8
:10002800F3CF2EF0F4CF2FF0F6CF30F0F7CF31F03A
:10003800F8CF32F0F5CF33F0F2BC9DA805D09EA8DA
:1000480003D0F4EC04F008D0F2BC9DAA05D09EAA17
:1000580003D00DEC05F000D033C0F5FF32C0F8FF37
:1000680031C0F7FF30C0F6FF2FC0F4FF2EC0F3FFFA
:100078002DC0DAFF2CC0D9FF2BC0E2FF2AC0E1FF58
:1000880029C0EAFF28C0E9FF27C0FBFF26C0FAFF06
:0600980011003BEF05F032
:10060000000D0A000000366EA7D03C509DEC04F0AF
:100610001200000E386E000E376E38BE08D038500B
:1006200005E1100E375CD8B0120001D01200010EA7
:100630003724D96E000E3820DA6EDF509DEC04F0BE
:10064000410E356EEE0EE82EFED7352EFCD700D0CB
:10065000374A382A38BEEBD7385001E1E2D71200CA
:100660008C9012008C801200899000D0899200D06A
:10067000899400D0899600D0899800D0899A00D0BA
:100680008D9000D08D9200D08D9400D0899C00D0A8
:100690008B9000D08B9200D08B9400D08C9000D0A7
:1006A0008C921200899012008980120089921200A7
:1006B000898212008994120089841200899612009E
:1006C000898612008998120089881200899A12007E
:1006D000898A12008D9012008D8012008D92120076
:1006E0008D8212008D9412008D841200899C12005C
:1006F000898C12008B9012008B8012008B9212005A
:100700008B8212008B9412008B8412008C9012004A
:100710008C8012008C9212008C821200899000D082
:10072000899200D0899400D0899600D0899800D011
:10073000899A00D08D9000D08D9200D08D9400D0F9
:10074000899C00D08B9000D08C9000D08C921200AD
:10075000550E9DEC04F012003650020AD8B4A2D710
:10076000060AD8B4A3D7020AD8B4A4D70E0AD8B4BC
:10077000A5D7020AD8B4A6D7060AD8B4A7D7020AC2
:10078000D8B4A8D71E0AD8B4A9D7020AD8B4AAD711
:10079000060AD8B4ABD7020AD8B4ACD70E0AD8B47C
:1007A000ADD7020AD8B4AED7060AD8B4AFD7020A7A
:1007B000D8B4B0D73C0AD8B477D7060AD8B478D71B
:1007C000020AD8B479D70E0AD8B47AD7020AD8B4B4
:1007D0007BD7060AD8B47CD7020AD8B47DD71E0AC4
:1007E000D8B47ED7020AD8B47FD7060AD8B480D747
:1007F000020AD8B481D70E0AD8B482D7020AD8B474
:1008000083D7060AD8B484D7020AD8B485D7770A22
:10081000D8B4FFD61D0AD8B4F8D60C0AD8B424D759
:10082000390AD8B41DD7030AD8B41CD71A0AD8B4C9
:1008300075D78ED7120046EC05F0F28EF28C350E8D
:100840003C6E330E016E2E0E026E390E036E340EA8
:10085000046E330E056E370E066E2E0E076E390EC1
:10086000086E310E096E350E0A6E2E0E0B6E340EAA
:100870000C6E350E0D6E2E0E0E6E380E0F6E370E80
:10088000106E00D0899000D0899200D0899400D059
:10089000899600D0899800D0899A00D08D9000D098
:1008A0008D9200D08D9400D0899C00D08B9000D088
:1008B0008B9200D08B9400D08C9000D08C9211D071
:1008C000BDEC04F03B6E9D983B509DEC04F0010E96
:1008D000366E060E376E25EC05F03B5003EC03F048
:1008E00000D02150D8B4FDD7EBD7FBD74DEF00F0A7
:1008F000000E8D6E000E8C6E000E896E000E8A6EDC
:10090000000E8B6E000E966E800E926E9368B80E7F
:10091000946EFC0E956E380E0F013A6F3F0E0F016C
:10092000396F000E0F013B6F000E0F013C6F000E80
:100930000F01386F6168F19E1200346E00D03D5097
:10094000D8B4FDD79DB803D034C0ADFF14D09D9866
:100950002450010D190EF324D96E000EF420DA6E26
:1009600034C0DFFF242A070E246403D0000E246E57
:1009700000D03D0600D09D881200000E346E00D0DD
:100980002150D8B4FDD72350010D110EF324D96E98
:10099000000EF420DA6EDF50346E232A070E236433
:1009A00003D0000E236E00D09D9A21069D8A3450FC
:1009B000120012009D9A9D98080EB86E900EAB6EB4
:1009C000240EAC6ECF0EAF6E000EB06E000E246E15
:1009D000000E256E080E3D6E000E226E000E236E78
:1009E000000E216E9D8A1200080E3D6013D0255026
:1009F000010D190EF324D96E000EF420DA6EDF50CB
:100A0000AD6E252A070E256403D0000E256E00D09A
:100A10003D2A12009D9812001200ABA203D0AB98A1
:100A2000AB8800D02250010D110EF324D96E000EB8
:100A3000F420DA6EAECFDFFF222A070E226403D045
:100A4000000E226E00D0212A1200380E386E000EE1
:100A5000396E04D03A5056EC05F000D036C0F6FF9F
:100A600037C0F7FF364A372A0800F5CF3AF03A5038
:100A7000D8A4F0D7120000EE01F0250EEE6AE806C9
:100A8000FDE1000EF86E00011BEF04F05BEC05F0D9
:100A900078EC04F04FEC05F0DAEC04F01200600E94
:100AA000D36E040ED26E000E9B6E1200356E355062
:0A0AB0009DEC04F01200D09E12002D
:020000040020DA
:08000000FFFFFFFFFFFFFFFF00
:020000040030CA
:0E000000FF281F3CFFBF85FF0FC00FE00F4021
:00000001FF
