:040000004DEF00F0D0
:10000800FACF26F0FBCF27F0E9CF28F0EACF29F086
:10001800E1CF2AF0E2CF2BF0D9CF2CF0DACF2DF0B8
:10002800F3CF2EF0F4CF2FF0F6CF30F0F7CF31F03A
:10003800F8CF32F0F5CF33F0F2BC9DA805D09EA8DA
:1000480003D0ABEC02F008D0F2BC9DAA05D09EAA62
:1000580003D0C4EC02F000D033C0F5FF32C0F8FF83
:1000680031C0F7FF30C0F6FF2FC0F4FF2EC0F3FFFA
:100078002DC0DAFF2CC0D9FF2BC0E2FF2AC0E1FF58
:1000880029C0EAFF28C0E9FF27C0FBFF26C0FAFF06
:100098001100DCEF02F0366EE5D03A5054EC02F075
:1000A8001200000E386E000E376E38BE08D0385079
:1000B80005E1100E375CD8B0120001D01200010E15
:1000C8003724D96E000E3820DA6EDF5054EC02F077
:1000D800410E356EEE0EE82EFED7352EFCD700D039
:1000E800374A382A38BEEBD7385001E1E2D7120038
:1000F8008C9012008C801200899000D0899200D0D8
:10010800899400D0899600D0899800D0899A00D027
:100118008D9000D08D9200D08D9400D0899C00D015
:100128008B9000D08B9200D08B9400D08C9000D014
:100138008C9200D08A9E00D08A9C00D08A9A00D0E7
:100148008A9800D08A9600D08A9400D08A9200D0EB
:100158008A9000D08C9E120089901200898012002B
:1001680089921200898212008994120089841200EF
:1001780089961200898612008998120089881200CF
:10018800899A1200898A12008D9012008D801200BF
:100198008D9212008D8212008D9412008D841200AF
:1001A800899C1200898C12008B9012008B8012009F
:1001B8008B9212008B8212008B9412008B84120097
:1001C8008C9012008C8012008A9E12008A8E120077
:1001D800899000D0899200D0899400D0899600D067
:1001E800899800D0899A00D08D9000D08D9200D047
:1001F8008D9400D0899C00D08B9000D08B9200D039
:100208008B9400D08C9000D08C9200D08A9C00D027
:100218008A9E12008A9C12008A8C12008A9E120002
:100228008A8E12008A9A12008A8A12008A9812000C
:100238008A8812008A9612008A8612008A9412000E
:100248008A8412008A9212008A8212008A9012000E
:100258008A8012008C9E12008C8E1200550E54EC6F
:1002680002F012003650020AD8B476D7010AD8B480
:10027800D5D7070AD8B474D7010AD8B4CBD7030A9C
:10028800D8B472D7010AD8B4CDD70F0AD8B470D76A
:10029800010AD8B4CBD7030AD8B46ED7010AD8B4A8
:1002A800C9D7070AD8B46CD7010AD8B4C7D7030A84
:1002B800D8B46AD7010AD8B4C5D71F0AD8B468D742
:1002C800010AD8B4C3D7030AD8B466D7010AD8B488
:1002D800C1D7070AD8B464D7020AD8B465D70E0ABA
:1002E800D8B466D7020AD8B467D7060AD8B468D78C
:1002F800020AD8B469D73C0AD8B430D7010AD8B4AE
:100308008FD7070AD8B42ED7010AD8B485D7030ADD
:10031800D8B42CD7010AD8B487D70F0AD8B42AD7AB
:10032800010AD8B485D7030AD8B428D7010AD8B4A3
:1003380083D7070AD8B426D7010AD8B481D7030AC5
:10034800D8B424D7010AD8B47FD71F0AD8B422D783
:10035800010AD8B47DD7030AD8B420D7010AD8B483
:100368007BD7070AD8B41ED7020AD8B41FD70E0AFB
:10037800D8B420D7020AD8B421D7060AD8B422D7CD
:10038800020AD8B423D7770AD8B48BD61D0AD8B4B2
:1003980084D60C0AD8B4B0D6390AD8B4A9D6030A78
:1003A800D8B4A8D61A0AD8B413D758D71200E7EC8D
:1003B80002F0F28EF28C350E3A6E330E016E2E0E6E
:1003C800026E390E036E340E046E330E056E370E50
:1003D800066E2E0E076E390E086E310E096E350E3A
:1003E8000A6E2E0E0B6E340E0C6E350E0D6E2E0E22
:1003F8000E6E380E0F6E370E106E00D0899000D03A
:10040800899200D0899400D0899600D0899800D02C
:10041800899A00D08D9000D08D9200D08D9400D014
:10042800899C00D08B9000D08B9200D08B9400D008
:100438008C9000D08C9207D074EC02F0396E395051
:100448004FEC00F000D02150D8B4FDD7F5D7FBD73A
:100458004DEF00F0000E8D6E000E8C6E000E896E52
:10046800000E8A6E000E8B6E000E966E000E926E57
:10047800000E936EB80E946E7C0E956E380E0F01BA
:100488003A6F3F0E0F01396F000E0F013B6F000EE0
:100498000F013C6F000E0F01386F6168F19E12006A
:1004A800346E00D03B50D8B4FDD79DB803D034C0CB
:1004B800ADFF14D09D982450010D190EF324D96E68
:1004C800000EF420DA6E34C0DFFF242A070E2464FD
:1004D80003D0000E246E00D03B0600D09D88120089
:1004E800000E346E00D02150D8B4FDD72350010D32
:1004F800110EF324D96E000EF420DA6EDF50346E3C
:10050800232A070E236403D0000E236E00D09D9A81
:1005180021069D8A3450120012009D9A9D98080E5B
:10052800B86E900EAB6E240EAC6ECF0EAF6E000E92
:10053800B06E000E246E000E256E080E3B6E000E87
:10054800226E000E236E000E216E9D8A1200080E88
:100558003B6013D02550010D190EF324D96E000EFF
:10056800F420DA6EDF50AD6E252A070E256403D01D
:10057800000E256E00D03B2A12009D981200120032
:10058800ABA203D0AB98AB8800D02250010D110E5E
:10059800F324D96E000EF420DA6EAECFDFFF222AE4
:1005A800070E226403D0000E226E00D0212A12000A
:1005B80000EE01F0250EEE6AE806FDE1000EF86E89
:1005C8000001DBEF01F0F7EC02F02EEC02F0F0ECAA
:1005D80002F091EC02F01200600ED36E040ED26E9F
:0A05E800000E9B6E1200D09E120060
:020000040020DA
:08000000FFFFFFFFFFFFFFFF00
:020000040030CA
:0E000000FF281F3CFFBF85FF0FC00FE00F4021
:00000001FF
