:040000004DEF00F0D0
:10000800FACF26F0FBCF27F0E9CF28F0EACF29F086
:10001800E1CF2AF0E2CF2BF0D9CF2CF0DACF2DF0B8
:10002800F3CF2EF0F4CF2FF0F6CF30F0F7CF31F03A
:10003800F8CF32F0F5CF33F0F2BC9DA805D09EA8DA
:1000480003D001EC05F008D0F2BC9DAA05D09EAA09
:1000580003D01AEC05F000D033C0F5FF32C0F8FF2A
:1000680031C0F7FF30C0F6FF2FC0F4FF2EC0F3FFFA
:100078002DC0DAFF2CC0D9FF2BC0E2FF2AC0E1FF58
:1000880029C0EAFF28C0E9FF27C0FBFF26C0FAFF06
:06009800110048EF05F025
:10060000000D0A000000366EADD03C50AAEC04F09C
:100610001200000E386E000E376E38BE08D038500B
:1006200005E1100E375CD8B0120001D01200010EA7
:100630003724D96E000E3820DA6EDF50AAEC04F0B1
:10064000410E356EEE0EE82EFED7352EFCD700D0CB
:10065000374A382A38BEEBD7385001E1E2D71200CA
:100660008C9012008C801200899000D0899200D06A
:10067000899400D0899600D0899800D0899A00D0BA
:100680008D9000D08D9200D08D9400D0899C00D0A8
:100690008B9000D08B9200D08B9400D08C9000D0A7
:1006A0008C9200D08A9C12008990120089801200DE
:1006B00089921200898212008A9C12008A8C120090
:1006C000899412008984120089961200898612008A
:1006D0008998120089881200899A1200898A12006A
:1006E0008D9012008D8012008D9212008D8212006A
:1006F0008D9412008D841200899C1200898C120046
:100700008B9012008B8012008B9212008B82120051
:100710008B9412008B8412008C9012008C8012003B
:100720008C9212008C821200899000D0899200D0A5
:10073000899400D0899600D0899800D0899A00D0F9
:100740008D9000D08D9200D08D9400D0899C00D0E7
:100750008B9000D08C9000D08C921200550EAAEC99
:1007600004F012003650020AD8B49ED7060AD8B454
:100770009FD7010AD8B4A0D7030AD8B4A1D70E0ACC
:10078000D8B4A2D7020AD8B4A3D7060AD8B4A4D73B
:10079000020AD8B4A5D71E0AD8B4A6D7020AD8B47C
:1007A000A7D7060AD8B4A8D7020AD8B4A9D70E0A80
:1007B000D8B4AAD7020AD8B4ABD7060AD8B4ACD7F3
:1007C000020AD8B4ADD73C0AD8B470D7060AD8B458
:1007D00071D7010AD8B472D7030AD8B473D70E0AF6
:1007E000D8B474D7020AD8B475D7060AD8B476D765
:1007F000020AD8B477D71E0AD8B478D7020AD8B478
:1008000079D7060AD8B47AD7020AD8B47BD70E0AA9
:10081000D8B47CD7020AD8B47DD7060AD8B47ED71C
:10082000020AD8B47FD7770AD8B4F3D61D0AD8B451
:10083000ECD60C0AD8B418D7390AD8B411D7030AA1
:10084000D8B410D71A0AD8B46FD788D7120053EC8F
:1008500005F0F28EF28C350E3C6E330E016E2E0ECC
:10086000026E390E036E340E046E330E056E370EB3
:10087000066E2E0E076E390E086E310E096E350E9D
:100880000A6E2E0E0B6E340E0C6E350E0D6E2E0E85
:100890000E6E380E0F6E370E106E00D0899000D09D
:1008A000899200D0899400D0899600D0899800D090
:1008B000899A00D08D9000D08D9200D08D9400D078
:1008C000899C00D08B9000D08B9200D08B9400D06C
:1008D0008C9000D08C9211D0CAEC04F03B6E9D98A5
:1008E0003B50AAEC04F0010E366E060E376E32EC69
:1008F00005F03B5003EC03F000D02150D8B4FDD7F5
:10090000EBD7FBD74DEF00F0000E8D6E000E8C6E16
:10091000000E896E000E8A6E000E8B6E000E966EB3
:10092000800E926EBF0E936EB80E946EFC0E956E96
:10093000380E0F013A6F3F0E0F01396F000E0F0195
:100940003B6F000E0F013C6F000E0F01386F6168A6
:10095000F19E1200346E00D03D50D8B4FDD79DB842
:1009600003D034C0ADFF14D09D982450010D190E52
:10097000F324D96E000EF420DA6E34C0DFFF242A8F
:10098000070E246403D0000E246E00D03D0600D074
:100990009D881200000E346E00D02150D8B4FDD7CF
:1009A0002350010D110EF324D96E000EF420DA6EDF
:1009B000DF50346E232A070E236403D0000E236E0B
:1009C00000D09D9A21069D8A3450120012009D9AF3
:1009D0009D98080EB86E900EAB6E240EAC6ECF0EC6
:1009E000AF6E000EB06E000E246E000E256E080E67
:1009F0003D6E000E226E000E236E000E216E9D8A4B
:100A00001200080E3D6013D02550010D190EF3247D
:100A1000D96E000EF420DA6EDF50AD6E252A070E77
:100A2000256403D0000E256E00D03D2A12009D984B
:100A300012001200ABA203D0AB98AB8800D02250BA
:100A4000010D110EF324D96E000EF420DA6EAECF34
:100A5000DFFF222A070E226403D0000E226E00D090
:100A6000212A1200380E386E000E396E04D03A502A
:100A700063EC05F000D036C0F6FF37C0F7FF364A0A
:100A8000372A0800F5CF3AF03A50D8A4F0D7120030
:100A900000EE01F0250EEE6AE806FDE1000EF86EAC
:100AA000000127EF04F068EC05F084EC04F05CEC46
:100AB00005F0E7EC04F01200600ED36E040ED26E67
:100AC000000E9B6E1200356E3550AAEC04F0120039
:040AD000D09E1200A2
:020000040020DA
:08000000FFFFFFFFFFFFFFFF00
:020000040030CA
:0E000000FF281F3CFFBF85FF0FC00FE00F4021
:00000001FF
